{
  "_format": "hh-sol-artifact-1",
  "contractName": "NewContract",
  "sourceName": "contracts/NewContract.sol",
  "abi": [
    {
      "inputs": [
        {
          "internalType": "address",
          "name": "_contract",
          "type": "address"
        }
      ],
      "name": "sendEvent",
      "outputs": [],
      "stateMutability": "payable",
      "type": "function"
    }
  ],
  "bytecode": "0x608060405234801561001057600080fd5b5061015f806100206000396000f3fe60806040526004361061001e5760003560e01c80634d4fd39f14610023575b600080fd5b61003d600480360381019061003891906100b7565b61003f565b005b8073ffffffffffffffffffffffffffffffffffffffff1663732b7a8d6040518163ffffffff1660e01b8152600401600060405180830381600087803b15801561008757600080fd5b505af115801561009b573d6000803e3d6000fd5b5050505050565b6000813590506100b181610112565b92915050565b6000602082840312156100c957600080fd5b60006100d7848285016100a2565b91505092915050565b60006100eb826100f2565b9050919050565b600073ffffffffffffffffffffffffffffffffffffffff82169050919050565b61011b816100e0565b811461012657600080fd5b5056fea264697066735822122079b0327dd44f236dbc595db354aacff3fa038c71243b9219221eebd30dc237b464736f6c63430008040033",
  "linkReferences": {},
  "deployedLinkReferences": {}
}